[
    {
        "block": {
            "hash": "0x187f70703bc5e03c5c31adf49eea20ea8ead86045d4f8925f43a0ddeb787d450",
            "confirmations": 819,
            "strippedsize": 367,
            "size": 512,
            "weight": 1613,
            "height": 203,
            "version": 805306368,
            "versionHex": "30000000",
            "merkleroot": "0x90d079ef103a8b7d3d9315126468f78b456690ba6628d1dcd5a16c9990fbe11e",
            "tx": [
                {
                    "tx_id": "0xc8589f304d3b9df1d4d8b3d15eb6edaaa2af9d796e9d9ace12b31f293705c5e9",
                    "merklePath": [
                        "0xe9c50537291fb312ce9a9d6e799dafa2aaedb65ed1b3d8d4f19d3b4d309f58c8",
                        "0xd9ecdc9013d597df1d7da24c8f9962542507c1761dc1ea28dc895b115e92a626"
                    ],
                    "tx_index": 0,
                    "verboseTransaction": {
                        "txid": "c8589f304d3b9df1d4d8b3d15eb6edaaa2af9d796e9d9ace12b31f293705c5e9",
                        "hash": "52503626e5aa93dd729aee69e1ca62b5d2f9bb5532a67c6d3e5ae575bef4e3f5",
                        "version": 2,
                        "size": 171,
                        "vsize": 144,
                        "weight": 576,
                        "locktime": 0,
                        "vin": [
                            {
                                "coinbase": "02cb000101",
                                "sequence": 4294967295
                            }
                        ],
                        "vout": [
                            {
                                "value": 25.00200000,
                                "n": 0,
                                "scriptPubKey": {
                                    "asm": "OP_HASH160 66c7060feb882664ae62ffad0051fe843e318e85 OP_EQUAL",
                                    "hex": "a91466c7060feb882664ae62ffad0051fe843e318e8587",
                                    "reqSigs": 1,
                                    "type": "scripthash",
                                    "addresses": [
                                        "2N2cfLFwWQYqCUTsPekU4U6Z6nSqA38RXcv"
                                    ]
                                }
                            },
                            {
                                "value": 0E-8,
                                "n": 1,
                                "scriptPubKey": {
                                    "asm": "OP_RETURN aa21a9ede5c17d15b8b1fa2811b7e6da66ffa5e1aaa05922c69068bf90cd585b95bb4675",
                                    "hex": "6a24aa21a9ede5c17d15b8b1fa2811b7e6da66ffa5e1aaa05922c69068bf90cd585b95bb4675",
                                    "type": "nulldata"
                                }
                            }
                        ],
                        "hex": "020000000001010000000000000000000000000000000000000000000000000000000000000000ffffffff0502cb000101ffffffff02400606950000000017a91466c7060feb882664ae62ffad0051fe843e318e85870000000000000000266a24aa21a9ede5c17d15b8b1fa2811b7e6da66ffa5e1aaa05922c69068bf90cd585b95bb46750120000000000000000000000000000000000000000000000000000000000000000000000000",
                        "blockhash": "187f70703bc5e03c5c31adf49eea20ea8ead86045d4f8925f43a0ddeb787d450",
                        "confirmations": 819,
                        "time": 1580900840,
                        "blocktime": 1580900840
                    }
                },
                {
                    "tx_id": "0x26a6925e115b89dc28eac11d76c107255462998f4ca27d1ddf97d51390dcecd9",
                    "merklePath": [
                        "0xe9c50537291fb312ce9a9d6e799dafa2aaedb65ed1b3d8d4f19d3b4d309f58c8",
                        "0xd9ecdc9013d597df1d7da24c8f9962542507c1761dc1ea28dc895b115e92a626"
                    ],
                    "tx_index": 1,
                    "verboseTransaction": {
                        "txid": "26a6925e115b89dc28eac11d76c107255462998f4ca27d1ddf97d51390dcecd9",
                        "hash": "4489f019b7ef189b14b2840d7abb7ff722e88f144a5446574b673e2bc6ef8f69",
                        "version": 2,
                        "size": 260,
                        "vsize": 179,
                        "weight": 713,
                        "locktime": 0,
                        "vin": [
                            {
                                "txid": "b28f1e58af1d4db02d1b9f0cf8d51ece3dd5f5013fd108647821ea255ae5daff",
                                "vout": 0,
                                "scriptSig": {
                                    "asm": "001443feac9ca9d20883126e30e962ca11fda07f808b",
                                    "hex": "16001443feac9ca9d20883126e30e962ca11fda07f808b"
                                },
                                "txinwitness": [
                                    "304402207c5e5b7aed8eeb04f8221194a4c9b625879f1c81e837a95ac8ece91bf1c144e8022031576d424666b0ac7fa1ccc4dfdce9a837ac565731e208ff65fdef81e6b0769201",
                                    "03d1eb60cd0d6583864fe1ed186ff0b7896248eec6c332610dfdd465d36526e289"
                                ],
                                "sequence": 4294967295
                            }
                        ],
                        "vout": [
                            {
                                "value": 0.01000000,
                                "n": 0,
                                "scriptPubKey": {
                                    "asm": "OP_HASH160 587f74982df108eb6c013ded48024a285946b063 OP_EQUAL",
                                    "hex": "a914587f74982df108eb6c013ded48024a285946b06387",
                                    "reqSigs": 1,
                                    "type": "scripthash",
                                    "addresses": [
                                        "2N1KA8vb6HK3QHmBFv8nqf36REL4MYjLkKb"
                                    ]
                                }
                            },
                            {
                                "value": 0E-8,
                                "n": 1,
                                "scriptPubKey": {
                                    "asm": "OP_RETURN 16",
                                    "hex": "6a021000",
                                    "type": "nulldata"
                                }
                            },
                            {
                                "value": 49.98800000,
                                "n": 2,
                                "scriptPubKey": {
                                    "asm": "OP_HASH160 66c7060feb882664ae62ffad0051fe843e318e85 OP_EQUAL",
                                    "hex": "a91466c7060feb882664ae62ffad0051fe843e318e8587",
                                    "reqSigs": 1,
                                    "type": "scripthash",
                                    "addresses": [
                                        "2N2cfLFwWQYqCUTsPekU4U6Z6nSqA38RXcv"
                                    ]
                                }
                            }
                        ],
                        "hex": "02000000000101ffdae55a25ea21786408d13f01f5d53dce1ed5f80c9f1b2db04d1daf581e8fb2000000001716001443feac9ca9d20883126e30e962ca11fda07f808bffffffff0340420f000000000017a914587f74982df108eb6c013ded48024a285946b063870000000000000000046a02100080a2f3290100000017a91466c7060feb882664ae62ffad0051fe843e318e85870247304402207c5e5b7aed8eeb04f8221194a4c9b625879f1c81e837a95ac8ece91bf1c144e8022031576d424666b0ac7fa1ccc4dfdce9a837ac565731e208ff65fdef81e6b07692012103d1eb60cd0d6583864fe1ed186ff0b7896248eec6c332610dfdd465d36526e28900000000",
                        "blockhash": "187f70703bc5e03c5c31adf49eea20ea8ead86045d4f8925f43a0ddeb787d450",
                        "confirmations": 819,
                        "time": 1580900840,
                        "blocktime": 1580900840
                    }
                }
            ],
            "time": 1580900840,
            "mediantime": 1580900839,
            "nonce": 5,
            "bits": "207fffff",
            "difficulty": 4.656542373906925E-10,
            "chainwork": "0x0000000000000000000000000000000000000000000000000000000000000198",
            "nTx": 2,
            "previousblockhash": "2182862ab34cfb0207bfb3b2072c69f4ab353d9653a10dc1564f6c69933dcb96",
            "nextblockhash": "6185a36a196ceee4df1e43258ede54d1da0066cc3e8562d9ccfa8e7b07edb220",
            "header": "0x0000003096cb3d93696c4f56c10da153963d35abf4692c07b2b3bf0702fb4cb32a8682211ee1fb90996ca1d5dcd12866ba9066458bf768641215933d7d8b3a10ef79d090e8a13a5effff7f2005000000"
        }
    },
    {
        "block": {
            "hash": "0x71f536c328502061f444af9f9154adc5c7842244ed6dc9b11d986edcaccfe691",
            "confirmations": 616,
            "strippedsize": 367,
            "size": 512,
            "weight": 1613,
            "height": 406,
            "version": 805306368,
            "versionHex": "30000000",
            "merkleroot": "0x57370d77b5b847a029469f8c727566496b4dceb2764d6352734d13247a705246",
            "tx": [
                {
                    "tx_id": "0x92cb2ca52556b6230f90e2063389cf8d98f198fe50929d90569397869cdd5bf5",
                    "merklePath": [
                        "0xf55bdd9c86979356909d9250fe98f1988dcf893306e2900f23b65625a52ccb92",
                        "0x4b8cd7b91f4a9f24b3aefbfe9aa67afad5fc776fd58f5076d61daa8b85f989b7"
                    ],
                    "tx_index": 0,
                    "verboseTransaction": {
                        "txid": "92cb2ca52556b6230f90e2063389cf8d98f198fe50929d90569397869cdd5bf5",
                        "hash": "b68d2f745f97c792c8e76cde2f92a29b9b855b64477219cb291a1e2421f51107",
                        "version": 2,
                        "size": 171,
                        "vsize": 144,
                        "weight": 576,
                        "locktime": 0,
                        "vin": [
                            {
                                "coinbase": "0296010101",
                                "sequence": 4294967295
                            }
                        ],
                        "vout": [
                            {
                                "value": 12.50200000,
                                "n": 0,
                                "scriptPubKey": {
                                    "asm": "OP_HASH160 66c7060feb882664ae62ffad0051fe843e318e85 OP_EQUAL",
                                    "hex": "a91466c7060feb882664ae62ffad0051fe843e318e8587",
                                    "reqSigs": 1,
                                    "type": "scripthash",
                                    "addresses": [
                                        "2N2cfLFwWQYqCUTsPekU4U6Z6nSqA38RXcv"
                                    ]
                                }
                            },
                            {
                                "value": 0E-8,
                                "n": 1,
                                "scriptPubKey": {
                                    "asm": "OP_RETURN aa21a9ed7b0b134e060f15d9441843e24a97cf7fa941a8692acc3ec9a23d219737c7b160",
                                    "hex": "6a24aa21a9ed7b0b134e060f15d9441843e24a97cf7fa941a8692acc3ec9a23d219737c7b160",
                                    "type": "nulldata"
                                }
                            }
                        ],
                        "hex": "020000000001010000000000000000000000000000000000000000000000000000000000000000ffffffff050296010101ffffffff02c089844a0000000017a91466c7060feb882664ae62ffad0051fe843e318e85870000000000000000266a24aa21a9ed7b0b134e060f15d9441843e24a97cf7fa941a8692acc3ec9a23d219737c7b1600120000000000000000000000000000000000000000000000000000000000000000000000000",
                        "blockhash": "71f536c328502061f444af9f9154adc5c7842244ed6dc9b11d986edcaccfe691",
                        "confirmations": 616,
                        "time": 1580900874,
                        "blocktime": 1580900874
                    }
                },
                {
                    "tx_id": "0xb789f9858baa1dd676508fd56f77fcd5fa7aa69afefbaeb3249f4a1fb9d78c4b",
                    "merklePath": [
                        "0xf55bdd9c86979356909d9250fe98f1988dcf893306e2900f23b65625a52ccb92",
                        "0x4b8cd7b91f4a9f24b3aefbfe9aa67afad5fc776fd58f5076d61daa8b85f989b7"
                    ],
                    "tx_index": 1,
                    "verboseTransaction": {
                        "txid": "b789f9858baa1dd676508fd56f77fcd5fa7aa69afefbaeb3249f4a1fb9d78c4b",
                        "hash": "37822098df5437e4ba544b4fa0979079750f0d37d36c99b0b9f9c512d53fe76d",
                        "version": 2,
                        "size": 260,
                        "vsize": 179,
                        "weight": 713,
                        "locktime": 0,
                        "vin": [
                            {
                                "txid": "845db41e2d85898da8fc971b3dce087169e1e113d7dff5ecb2e8c5baf50e65ff",
                                "vout": 0,
                                "scriptSig": {
                                    "asm": "001443feac9ca9d20883126e30e962ca11fda07f808b",
                                    "hex": "16001443feac9ca9d20883126e30e962ca11fda07f808b"
                                },
                                "txinwitness": [
                                    "304402203a5cf7069e493457daa52cad5d2644453735b91be3f02790d7472c750014fa42022049c18b618c48d51153f59f875c0ab1f2cc369664245def0868cc86b9721bb7d401",
                                    "03d1eb60cd0d6583864fe1ed186ff0b7896248eec6c332610dfdd465d36526e289"
                                ],
                                "sequence": 4294967295
                            }
                        ],
                        "vout": [
                            {
                                "value": 0.01000000,
                                "n": 0,
                                "scriptPubKey": {
                                    "asm": "OP_HASH160 587f74982df108eb6c013ded48024a285946b063 OP_EQUAL",
                                    "hex": "a914587f74982df108eb6c013ded48024a285946b06387",
                                    "reqSigs": 1,
                                    "type": "scripthash",
                                    "addresses": [
                                        "2N1KA8vb6HK3QHmBFv8nqf36REL4MYjLkKb"
                                    ]
                                }
                            },
                            {
                                "value": 0E-8,
                                "n": 1,
                                "scriptPubKey": {
                                    "asm": "OP_RETURN 16",
                                    "hex": "6a021000",
                                    "type": "nulldata"
                                }
                            },
                            {
                                "value": 24.98800000,
                                "n": 2,
                                "scriptPubKey": {
                                    "asm": "OP_HASH160 66c7060feb882664ae62ffad0051fe843e318e85 OP_EQUAL",
                                    "hex": "a91466c7060feb882664ae62ffad0051fe843e318e8587",
                                    "reqSigs": 1,
                                    "type": "scripthash",
                                    "addresses": [
                                        "2N2cfLFwWQYqCUTsPekU4U6Z6nSqA38RXcv"
                                    ]
                                }
                            }
                        ],
                        "hex": "02000000000101ff650ef5bac5e8b2ecf5dfd713e1e1697108ce3d1b97fca88d89852d1eb45d84000000001716001443feac9ca9d20883126e30e962ca11fda07f808bffffffff0340420f000000000017a914587f74982df108eb6c013ded48024a285946b063870000000000000000046a02100080a9f0940000000017a91466c7060feb882664ae62ffad0051fe843e318e85870247304402203a5cf7069e493457daa52cad5d2644453735b91be3f02790d7472c750014fa42022049c18b618c48d51153f59f875c0ab1f2cc369664245def0868cc86b9721bb7d4012103d1eb60cd0d6583864fe1ed186ff0b7896248eec6c332610dfdd465d36526e28900000000",
                        "blockhash": "71f536c328502061f444af9f9154adc5c7842244ed6dc9b11d986edcaccfe691",
                        "confirmations": 616,
                        "time": 1580900874,
                        "blocktime": 1580900874
                    }
                }
            ],
            "time": 1580900874,
            "mediantime": 1580900873,
            "nonce": 1,
            "bits": "207fffff",
            "difficulty": 4.656542373906925E-10,
            "chainwork": "0x000000000000000000000000000000000000000000000000000000000000032e",
            "nTx": 2,
            "previousblockhash": "349ea7d791489b8d50e00602f1d51631e4989234ca78caf710ae459b628497f9",
            "nextblockhash": "71accdf66ed4345088d6edb588c1f1bdb7c9f9c1030e5f5a4de33708e9a5aa6f",
            "header": "0x00000030f99784629b45ae10f7ca78ca349298e43116d5f10206e0508d9b4891d7a79e344652707a24134d7352634d76b2ce4d6b496675728c9f4629a047b8b5770d37570aa23a5effff7f2001000000"
        }
    },
    {
        "block": {
            "hash": "0x7ae246d8e7bf21006c9ad763b8a0ff6cd684210409de19adefc47761bfbd65d2",
            "confirmations": 413,
            "strippedsize": 367,
            "size": 512,
            "weight": 1613,
            "height": 609,
            "version": 536870912,
            "versionHex": "20000000",
            "merkleroot": "0xc0d573cf4dffad7656a4178cfbed2f7b97523d6f37d778b56eab5dec926d028c",
            "tx": [
                {
                    "tx_id": "0x501e9b4b666e360fe4d6b6367f731724eda0918347199665f272616a1e1ee4f3",
                    "merklePath": [
                        "0xf3e41e1e6a6172f2659619478391a0ed2417737f36b6d6e40f366e664b9b1e50",
                        "0x5a4e7f69b414a7ab71b7f8601841ef9d355f9305749b37310eb9922b0f980e41"
                    ],
                    "tx_index": 0,
                    "verboseTransaction": {
                        "txid": "501e9b4b666e360fe4d6b6367f731724eda0918347199665f272616a1e1ee4f3",
                        "hash": "69513313b981586bdbe9f1d8297a45fdb17e4288db79e4e0909e6f093acc7a9f",
                        "version": 2,
                        "size": 171,
                        "vsize": 144,
                        "weight": 576,
                        "locktime": 0,
                        "vin": [
                            {
                                "coinbase": "0261020101",
                                "sequence": 4294967295
                            }
                        ],
                        "vout": [
                            {
                                "value": 3.12700000,
                                "n": 0,
                                "scriptPubKey": {
                                    "asm": "OP_HASH160 66c7060feb882664ae62ffad0051fe843e318e85 OP_EQUAL",
                                    "hex": "a91466c7060feb882664ae62ffad0051fe843e318e8587",
                                    "reqSigs": 1,
                                    "type": "scripthash",
                                    "addresses": [
                                        "2N2cfLFwWQYqCUTsPekU4U6Z6nSqA38RXcv"
                                    ]
                                }
                            },
                            {
                                "value": 0E-8,
                                "n": 1,
                                "scriptPubKey": {
                                    "asm": "OP_RETURN aa21a9ed316126f1790ad773cb9a64143f3083b15db46830560c955a3f0e74757a4abb88",
                                    "hex": "6a24aa21a9ed316126f1790ad773cb9a64143f3083b15db46830560c955a3f0e74757a4abb88",
                                    "type": "nulldata"
                                }
                            }
                        ],
                        "hex": "020000000001010000000000000000000000000000000000000000000000000000000000000000ffffffff050261020101ffffffff02606ca3120000000017a91466c7060feb882664ae62ffad0051fe843e318e85870000000000000000266a24aa21a9ed316126f1790ad773cb9a64143f3083b15db46830560c955a3f0e74757a4abb880120000000000000000000000000000000000000000000000000000000000000000000000000",
                        "blockhash": "7ae246d8e7bf21006c9ad763b8a0ff6cd684210409de19adefc47761bfbd65d2",
                        "confirmations": 413,
                        "time": 1580900908,
                        "blocktime": 1580900908
                    }
                },
                {
                    "tx_id": "0x410e980f2b92b90e31379b7405935f359def411860f8b771aba714b4697f4e5a",
                    "merklePath": [
                        "0xf3e41e1e6a6172f2659619478391a0ed2417737f36b6d6e40f366e664b9b1e50",
                        "0x5a4e7f69b414a7ab71b7f8601841ef9d355f9305749b37310eb9922b0f980e41"
                    ],
                    "tx_index": 1,
                    "verboseTransaction": {
                        "txid": "410e980f2b92b90e31379b7405935f359def411860f8b771aba714b4697f4e5a",
                        "hash": "b901f493e17d72cac8bc00dbb3e023e37a07fc25caa5e8dde249170e103f59c2",
                        "version": 2,
                        "size": 260,
                        "vsize": 179,
                        "weight": 713,
                        "locktime": 0,
                        "vin": [
                            {
                                "txid": "62d746040a23e42a8416be4123fa05b2714d01181a2ffff587b01228010b92fe",
                                "vout": 0,
                                "scriptSig": {
                                    "asm": "001443feac9ca9d20883126e30e962ca11fda07f808b",
                                    "hex": "16001443feac9ca9d20883126e30e962ca11fda07f808b"
                                },
                                "txinwitness": [
                                    "304402206be729acf6b86e2c20847d0901d95a941bad5bcd711a8c16a39d5cc1bb63d35402206e31ee46d05218962dc275fbb0daa10efd2cf744d6cf26049586023bffe8e8c801",
                                    "03d1eb60cd0d6583864fe1ed186ff0b7896248eec6c332610dfdd465d36526e289"
                                ],
                                "sequence": 4294967295
                            }
                        ],
                        "vout": [
                            {
                                "value": 0.01000000,
                                "n": 0,
                                "scriptPubKey": {
                                    "asm": "OP_HASH160 587f74982df108eb6c013ded48024a285946b063 OP_EQUAL",
                                    "hex": "a914587f74982df108eb6c013ded48024a285946b06387",
                                    "reqSigs": 1,
                                    "type": "scripthash",
                                    "addresses": [
                                        "2N1KA8vb6HK3QHmBFv8nqf36REL4MYjLkKb"
                                    ]
                                }
                            },
                            {
                                "value": 0E-8,
                                "n": 1,
                                "scriptPubKey": {
                                    "asm": "OP_RETURN 16",
                                    "hex": "6a021000",
                                    "type": "nulldata"
                                }
                            },
                            {
                                "value": 24.98800000,
                                "n": 2,
                                "scriptPubKey": {
                                    "asm": "OP_HASH160 66c7060feb882664ae62ffad0051fe843e318e85 OP_EQUAL",
                                    "hex": "a91466c7060feb882664ae62ffad0051fe843e318e8587",
                                    "reqSigs": 1,
                                    "type": "scripthash",
                                    "addresses": [
                                        "2N2cfLFwWQYqCUTsPekU4U6Z6nSqA38RXcv"
                                    ]
                                }
                            }
                        ],
                        "hex": "02000000000101fe920b012812b087f5ff2f1a18014d71b205fa2341be16842ae4230a0446d762000000001716001443feac9ca9d20883126e30e962ca11fda07f808bffffffff0340420f000000000017a914587f74982df108eb6c013ded48024a285946b063870000000000000000046a02100080a9f0940000000017a91466c7060feb882664ae62ffad0051fe843e318e85870247304402206be729acf6b86e2c20847d0901d95a941bad5bcd711a8c16a39d5cc1bb63d35402206e31ee46d05218962dc275fbb0daa10efd2cf744d6cf26049586023bffe8e8c8012103d1eb60cd0d6583864fe1ed186ff0b7896248eec6c332610dfdd465d36526e28900000000",
                        "blockhash": "7ae246d8e7bf21006c9ad763b8a0ff6cd684210409de19adefc47761bfbd65d2",
                        "confirmations": 413,
                        "time": 1580900908,
                        "blocktime": 1580900908
                    }
                }
            ],
            "time": 1580900908,
            "mediantime": 1580900907,
            "nonce": 0,
            "bits": "207fffff",
            "difficulty": 4.656542373906925E-10,
            "chainwork": "0x00000000000000000000000000000000000000000000000000000000000004c4",
            "nTx": 2,
            "previousblockhash": "1ea66222588159a225b79a6986f3ddb66ff6a146585a45a4a78f1936755e7031",
            "nextblockhash": "551663a8b729ab0d1111d1a6695b25bc19dc26d84050330dbbb1ade937cda940",
            "header": "0x0000002031705e7536198fa7a4455a5846a1f66fb6ddf386699ab725a25981582262a61e8c026d92ec5dab6eb578d7376f3d52977b2fedfb8c17a45676adff4dcf73d5c02ca23a5effff7f2000000000"
        }
    },
    {
        "block": {
            "hash": "0x37dfe2bf3b708ef0076fb7818aa5ea80901682144cd5ce6d3fec7185ef829516",
            "confirmations": 210,
            "strippedsize": 367,
            "size": 512,
            "weight": 1613,
            "height": 812,
            "version": 536870912,
            "versionHex": "20000000",
            "merkleroot": "0x65345dd034b720ebdacbfa6a0e11532ccc06aa7f545cd4826ed02a69f4db9864",
            "tx": [
                {
                    "tx_id": "0x90c5ad53b5c6ece16f545b4a563098bf513926ce46e51ead9a83c368b19e8f9f",
                    "merklePath": [
                        "0x9f8f9eb168c3839aad1ee546ce263951bf9830564a5b546fe1ecc6b553adc590",
                        "0x2adc8cc7c3b492863ee8ef13336daf3b7cbda0011dc30bd1b4495ac241aafa98"
                    ],
                    "tx_index": 0,
                    "verboseTransaction": {
                        "txid": "90c5ad53b5c6ece16f545b4a563098bf513926ce46e51ead9a83c368b19e8f9f",
                        "hash": "fe3d1f3ca4d50ddbe0f8b44695facd455e87fa0eadb6ac4c7b5c438203918d90",
                        "version": 2,
                        "size": 171,
                        "vsize": 144,
                        "weight": 576,
                        "locktime": 0,
                        "vin": [
                            {
                                "coinbase": "022c030101",
                                "sequence": 4294967295
                            }
                        ],
                        "vout": [
                            {
                                "value": 1.56360000,
                                "n": 0,
                                "scriptPubKey": {
                                    "asm": "OP_HASH160 66c7060feb882664ae62ffad0051fe843e318e85 OP_EQUAL",
                                    "hex": "a91466c7060feb882664ae62ffad0051fe843e318e8587",
                                    "reqSigs": 1,
                                    "type": "scripthash",
                                    "addresses": [
                                        "2N2cfLFwWQYqCUTsPekU4U6Z6nSqA38RXcv"
                                    ]
                                }
                            },
                            {
                                "value": 0E-8,
                                "n": 1,
                                "scriptPubKey": {
                                    "asm": "OP_RETURN aa21a9edb67e661acf4bc906e795ec2093734a32a85641e4e9c830e7e92bed7f7d1eb146",
                                    "hex": "6a24aa21a9edb67e661acf4bc906e795ec2093734a32a85641e4e9c830e7e92bed7f7d1eb146",
                                    "type": "nulldata"
                                }
                            }
                        ],
                        "hex": "020000000001010000000000000000000000000000000000000000000000000000000000000000ffffffff05022c030101ffffffff0240dd51090000000017a91466c7060feb882664ae62ffad0051fe843e318e85870000000000000000266a24aa21a9edb67e661acf4bc906e795ec2093734a32a85641e4e9c830e7e92bed7f7d1eb1460120000000000000000000000000000000000000000000000000000000000000000000000000",
                        "blockhash": "37dfe2bf3b708ef0076fb7818aa5ea80901682144cd5ce6d3fec7185ef829516",
                        "confirmations": 210,
                        "time": 1580900942,
                        "blocktime": 1580900942
                    }
                },
                {
                    "tx_id": "0x98faaa41c25a49b4d10bc31d01a0bd7c3baf6d3313efe83e8692b4c3c78cdc2a",
                    "merklePath": [
                        "0x9f8f9eb168c3839aad1ee546ce263951bf9830564a5b546fe1ecc6b553adc590",
                        "0x2adc8cc7c3b492863ee8ef13336daf3b7cbda0011dc30bd1b4495ac241aafa98"
                    ],
                    "tx_index": 1,
                    "verboseTransaction": {
                        "txid": "98faaa41c25a49b4d10bc31d01a0bd7c3baf6d3313efe83e8692b4c3c78cdc2a",
                        "hash": "d99d8429c854956da60b2c1cb9a0f4b0796fb9492524e19f1ee07125a14bff22",
                        "version": 2,
                        "size": 260,
                        "vsize": 179,
                        "weight": 713,
                        "locktime": 0,
                        "vin": [
                            {
                                "txid": "ce5c0efd5f30a813e888ba19e52998b2d9339241ee80c757fa4fb26ac52dd7ff",
                                "vout": 0,
                                "scriptSig": {
                                    "asm": "001443feac9ca9d20883126e30e962ca11fda07f808b",
                                    "hex": "16001443feac9ca9d20883126e30e962ca11fda07f808b"
                                },
                                "txinwitness": [
                                    "304402202ed4100d5ad5c5c7e4f3c103e7e4b8c8fc898c569380ed26c67246fbc58aecdb02203b6d6d70ba0e2fd3227c508ebb60906de76730e80333bfd631a862c698fe983401",
                                    "03d1eb60cd0d6583864fe1ed186ff0b7896248eec6c332610dfdd465d36526e289"
                                ],
                                "sequence": 4294967295
                            }
                        ],
                        "vout": [
                            {
                                "value": 0.01000000,
                                "n": 0,
                                "scriptPubKey": {
                                    "asm": "OP_HASH160 587f74982df108eb6c013ded48024a285946b063 OP_EQUAL",
                                    "hex": "a914587f74982df108eb6c013ded48024a285946b06387",
                                    "reqSigs": 1,
                                    "type": "scripthash",
                                    "addresses": [
                                        "2N1KA8vb6HK3QHmBFv8nqf36REL4MYjLkKb"
                                    ]
                                }
                            },
                            {
                                "value": 0E-8,
                                "n": 1,
                                "scriptPubKey": {
                                    "asm": "OP_RETURN 16",
                                    "hex": "6a021000",
                                    "type": "nulldata"
                                }
                            },
                            {
                                "value": 3.11390000,
                                "n": 2,
                                "scriptPubKey": {
                                    "asm": "OP_HASH160 66c7060feb882664ae62ffad0051fe843e318e85 OP_EQUAL",
                                    "hex": "a91466c7060feb882664ae62ffad0051fe843e318e8587",
                                    "reqSigs": 1,
                                    "type": "scripthash",
                                    "addresses": [
                                        "2N2cfLFwWQYqCUTsPekU4U6Z6nSqA38RXcv"
                                    ]
                                }
                            }
                        ],
                        "hex": "02000000000101ffd72dc56ab24ffa57c780ee419233d9b29829e519ba88e813a8305ffd0e5cce000000001716001443feac9ca9d20883126e30e962ca11fda07f808bffffffff0340420f000000000017a914587f74982df108eb6c013ded48024a285946b063870000000000000000046a021000306f8f120000000017a91466c7060feb882664ae62ffad0051fe843e318e85870247304402202ed4100d5ad5c5c7e4f3c103e7e4b8c8fc898c569380ed26c67246fbc58aecdb02203b6d6d70ba0e2fd3227c508ebb60906de76730e80333bfd631a862c698fe9834012103d1eb60cd0d6583864fe1ed186ff0b7896248eec6c332610dfdd465d36526e28900000000",
                        "blockhash": "37dfe2bf3b708ef0076fb7818aa5ea80901682144cd5ce6d3fec7185ef829516",
                        "confirmations": 210,
                        "time": 1580900942,
                        "blocktime": 1580900942
                    }
                }
            ],
            "time": 1580900942,
            "mediantime": 1580900941,
            "nonce": 1,
            "bits": "207fffff",
            "difficulty": 4.656542373906925E-10,
            "chainwork": "0x000000000000000000000000000000000000000000000000000000000000065a",
            "nTx": 2,
            "previousblockhash": "43a12879d249c261f8c1627d9282ea7bb78d991838507ee6c4ab4929d041bc10",
            "nextblockhash": "5e4843de1fb68490ee88576202994b4b2e089b371750c49c8d0b89dd676a00bf",
            "header": "0x0000002010bc41d02949abc4e67e503818998db77bea82927d62c1f861c249d27928a1436498dbf4692ad06e82d45c547faa06cc2c53110e6afacbdaeb20b734d05d34654ea23a5effff7f2001000000"
        }
    },
    {
        "block": {
            "hash": "0x13a5e2ad42b420f8f0a3198ebf8bec8d857792524b7e691dd87d4689df557ef4",
            "confirmations": 7,
            "strippedsize": 367,
            "size": 512,
            "weight": 1613,
            "height": 1015,
            "version": 536870912,
            "versionHex": "20000000",
            "merkleroot": "0x96ed05a2f0a2058c0e7587cbd5cdf57d9b6ded21f0f48a8f71c9e3b32e2a1c31",
            "tx": [
                {
                    "tx_id": "0x097cf7dbf6a4f28499dfd41c9d4169361869c5472e6fbf5f8a6f5b0152a6fd63",
                    "merklePath": [
                        "0x63fda652015b6f8a5fbf6f2e47c569183669419d1cd4df9984f2a4f6dbf77c09",
                        "0xff25862cc49c44971a4a9cf8f525302ae741df13956520310a4e7dc01e2235a5"
                    ],
                    "tx_index": 0,
                    "verboseTransaction": {
                        "txid": "097cf7dbf6a4f28499dfd41c9d4169361869c5472e6fbf5f8a6f5b0152a6fd63",
                        "hash": "caf6a1b66ec3ea66b469fa08e72e41d1124d36500effe1b0777ddf9dfc175781",
                        "version": 2,
                        "size": 171,
                        "vsize": 144,
                        "weight": 576,
                        "locktime": 0,
                        "vin": [
                            {
                                "coinbase": "02f7030101",
                                "sequence": 4294967295
                            }
                        ],
                        "vout": [
                            {
                                "value": 0.78325000,
                                "n": 0,
                                "scriptPubKey": {
                                    "asm": "OP_HASH160 66c7060feb882664ae62ffad0051fe843e318e85 OP_EQUAL",
                                    "hex": "a91466c7060feb882664ae62ffad0051fe843e318e8587",
                                    "reqSigs": 1,
                                    "type": "scripthash",
                                    "addresses": [
                                        "2N2cfLFwWQYqCUTsPekU4U6Z6nSqA38RXcv"
                                    ]
                                }
                            },
                            {
                                "value": 0E-8,
                                "n": 1,
                                "scriptPubKey": {
                                    "asm": "OP_RETURN aa21a9edca97378cf079cea5eccdb9f8a44281910e198f032aa8463d86b1ec9b19b86641",
                                    "hex": "6a24aa21a9edca97378cf079cea5eccdb9f8a44281910e198f032aa8463d86b1ec9b19b86641",
                                    "type": "nulldata"
                                }
                            }
                        ],
                        "hex": "020000000001010000000000000000000000000000000000000000000000000000000000000000ffffffff0502f7030101ffffffff020825ab040000000017a91466c7060feb882664ae62ffad0051fe843e318e85870000000000000000266a24aa21a9edca97378cf079cea5eccdb9f8a44281910e198f032aa8463d86b1ec9b19b866410120000000000000000000000000000000000000000000000000000000000000000000000000",
                        "blockhash": "13a5e2ad42b420f8f0a3198ebf8bec8d857792524b7e691dd87d4689df557ef4",
                        "confirmations": 7,
                        "time": 1580900975,
                        "blocktime": 1580900975
                    }
                },
                {
                    "tx_id": "0xa535221ec07d4e0a3120659513df41e72a3025f5f89c4a1a97449cc42c8625ff",
                    "merklePath": [
                        "0x63fda652015b6f8a5fbf6f2e47c569183669419d1cd4df9984f2a4f6dbf77c09",
                        "0xff25862cc49c44971a4a9cf8f525302ae741df13956520310a4e7dc01e2235a5"
                    ],
                    "tx_index": 1,
                    "verboseTransaction": {
                        "txid": "a535221ec07d4e0a3120659513df41e72a3025f5f89c4a1a97449cc42c8625ff",
                        "hash": "fa4c562544bc649163a5dd6311884c689daf7adc8664399e7077023b17774989",
                        "version": 2,
                        "size": 260,
                        "vsize": 179,
                        "weight": 713,
                        "locktime": 0,
                        "vin": [
                            {
                                "txid": "edf0cdc7e031c5efa6e68635503361cf6a21a4771f5d37d7bf3d389d34c28dfe",
                                "vout": 0,
                                "scriptSig": {
                                    "asm": "001443feac9ca9d20883126e30e962ca11fda07f808b",
                                    "hex": "16001443feac9ca9d20883126e30e962ca11fda07f808b"
                                },
                                "txinwitness": [
                                    "3044022003eb7d37af8740e293331fbcb0e28792aaad04f857bb67bdcfb67eb984dbbbb102205131023ce1c4f98adc57e7ce8a6fa281c2fae2f9cd371d943aeaca71d5cf35fd01",
                                    "03d1eb60cd0d6583864fe1ed186ff0b7896248eec6c332610dfdd465d36526e289"
                                ],
                                "sequence": 4294967295
                            }
                        ],
                        "vout": [
                            {
                                "value": 0.01000000,
                                "n": 0,
                                "scriptPubKey": {
                                    "asm": "OP_HASH160 587f74982df108eb6c013ded48024a285946b063 OP_EQUAL",
                                    "hex": "a914587f74982df108eb6c013ded48024a285946b06387",
                                    "reqSigs": 1,
                                    "type": "scripthash",
                                    "addresses": [
                                        "2N1KA8vb6HK3QHmBFv8nqf36REL4MYjLkKb"
                                    ]
                                }
                            },
                            {
                                "value": 0E-8,
                                "n": 1,
                                "scriptPubKey": {
                                    "asm": "OP_RETURN 16",
                                    "hex": "6a021000",
                                    "type": "nulldata"
                                }
                            },
                            {
                                "value": 49.98800000,
                                "n": 2,
                                "scriptPubKey": {
                                    "asm": "OP_HASH160 66c7060feb882664ae62ffad0051fe843e318e85 OP_EQUAL",
                                    "hex": "a91466c7060feb882664ae62ffad0051fe843e318e8587",
                                    "reqSigs": 1,
                                    "type": "scripthash",
                                    "addresses": [
                                        "2N2cfLFwWQYqCUTsPekU4U6Z6nSqA38RXcv"
                                    ]
                                }
                            }
                        ],
                        "hex": "02000000000101fe8dc2349d383dbfd7375d1f77a4216acf6133503586e6a6efc531e0c7cdf0ed000000001716001443feac9ca9d20883126e30e962ca11fda07f808bffffffff0340420f000000000017a914587f74982df108eb6c013ded48024a285946b063870000000000000000046a02100080a2f3290100000017a91466c7060feb882664ae62ffad0051fe843e318e858702473044022003eb7d37af8740e293331fbcb0e28792aaad04f857bb67bdcfb67eb984dbbbb102205131023ce1c4f98adc57e7ce8a6fa281c2fae2f9cd371d943aeaca71d5cf35fd012103d1eb60cd0d6583864fe1ed186ff0b7896248eec6c332610dfdd465d36526e28900000000",
                        "blockhash": "13a5e2ad42b420f8f0a3198ebf8bec8d857792524b7e691dd87d4689df557ef4",
                        "confirmations": 7,
                        "time": 1580900975,
                        "blocktime": 1580900975
                    }
                }
            ],
            "time": 1580900975,
            "mediantime": 1580900975,
            "nonce": 3,
            "bits": "207fffff",
            "difficulty": 4.656542373906925E-10,
            "chainwork": "0x00000000000000000000000000000000000000000000000000000000000007f0",
            "nTx": 2,
            "previousblockhash": "0da7e84b81150422a95c82b4b9624b535c6c231119df981617efee00ca4d459d",
            "nextblockhash": "7b7f457f3f34b61f8ec58bc2233ce5e2ae19afaae0a794b8a5b051b0f8527f63",
            "header": "0x000000209d454dca00eeef171698df1911236c5c534b62b9b4825ca9220415814be8a70d311c2a2eb3e3c9718f8af4f021ed6d9b7df5cdd5cb87750e8c05a2f0a205ed966fa23a5effff7f2003000000"
        }
    }
]